{
  "contractName": "PlantShop",
  "abi": [
    {
      "constant": true,
      "inputs": [
        {
          "name": "",
          "type": "uint256"
        }
      ],
      "name": "stories",
      "outputs": [
        {
          "name": "title",
          "type": "string"
        },
        {
          "name": "content",
          "type": "string"
        },
        {
          "name": "author",
          "type": "address"
        },
        {
          "name": "price",
          "type": "uint256"
        },
        {
          "name": "isPurchased",
          "type": "bool"
        }
      ],
      "payable": false,
      "stateMutability": "view",
      "type": "function"
    },
    {
      "constant": true,
      "inputs": [
        {
          "name": "",
          "type": "uint256"
        }
      ],
      "name": "plants",
      "outputs": [
        {
          "name": "name",
          "type": "string"
        },
        {
          "name": "price",
          "type": "uint256"
        },
        {
          "name": "buyer",
          "type": "address"
        }
      ],
      "payable": false,
      "stateMutability": "view",
      "type": "function"
    },
    {
      "constant": true,
      "inputs": [
        {
          "name": "",
          "type": "uint256"
        }
      ],
      "name": "storyToOwner",
      "outputs": [
        {
          "name": "",
          "type": "address"
        }
      ],
      "payable": false,
      "stateMutability": "view",
      "type": "function"
    },
    {
      "anonymous": false,
      "inputs": [
        {
          "indexed": false,
          "name": "plantId",
          "type": "uint256"
        },
        {
          "indexed": false,
          "name": "buyer",
          "type": "address"
        }
      ],
      "name": "PlantPurchased",
      "type": "event"
    },
    {
      "anonymous": false,
      "inputs": [
        {
          "indexed": false,
          "name": "storyId",
          "type": "uint256"
        },
        {
          "indexed": false,
          "name": "buyer",
          "type": "address"
        }
      ],
      "name": "StoryPurchased",
      "type": "event"
    },
    {
      "constant": false,
      "inputs": [
        {
          "name": "plantId",
          "type": "uint256"
        }
      ],
      "name": "buyPlant",
      "outputs": [
        {
          "name": "",
          "type": "uint256"
        }
      ],
      "payable": false,
      "stateMutability": "nonpayable",
      "type": "function"
    },
    {
      "constant": true,
      "inputs": [],
      "name": "getPlantBuyers",
      "outputs": [
        {
          "name": "",
          "type": "address[16]"
        }
      ],
      "payable": false,
      "stateMutability": "view",
      "type": "function"
    },
    {
      "constant": false,
      "inputs": [
        {
          "name": "_title",
          "type": "string"
        },
        {
          "name": "_content",
          "type": "string"
        },
        {
          "name": "_price",
          "type": "uint256"
        }
      ],
      "name": "createStory",
      "outputs": [],
      "payable": false,
      "stateMutability": "nonpayable",
      "type": "function"
    },
    {
      "constant": false,
      "inputs": [
        {
          "name": "_storyId",
          "type": "uint256"
        }
      ],
      "name": "purchaseStory",
      "outputs": [],
      "payable": true,
      "stateMutability": "payable",
      "type": "function"
    },
    {
      "constant": true,
      "inputs": [],
      "name": "getStoryCount",
      "outputs": [
        {
          "name": "",
          "type": "uint256"
        }
      ],
      "payable": false,
      "stateMutability": "view",
      "type": "function"
    },
    {
      "constant": true,
      "inputs": [
        {
          "name": "_storyId",
          "type": "uint256"
        }
      ],
      "name": "isStoryPurchased",
      "outputs": [
        {
          "name": "",
          "type": "bool"
        }
      ],
      "payable": false,
      "stateMutability": "view",
      "type": "function"
    },
    {
      "constant": true,
      "inputs": [
        {
          "name": "_storyId",
          "type": "uint256"
        }
      ],
      "name": "getStory",
      "outputs": [
        {
          "name": "",
          "type": "string"
        },
        {
          "name": "",
          "type": "string"
        },
        {
          "name": "",
          "type": "address"
        },
        {
          "name": "",
          "type": "uint256"
        },
        {
          "name": "",
          "type": "bool"
        }
      ],
      "payable": false,
      "stateMutability": "view",
      "type": "function"
    }
  ],
  "bytecode": "0x608060405234801561001057600080fd5b5061145d806100206000396000f3fe6080604052600436106100915760003560e01c80638dd2361c116100595780638dd2361c1461056b5780639be9b1d914610659578063edb1dc9c146106ac578063edba2b1c146106da578063fede456e1461070557610091565b806303cf950f146100965780635c0b966f146101fb578063754791cf1461024a578063805949861461029d5780638a3b6ab814610406575b600080fd5b3480156100a257600080fd5b506100cf600480360360208110156100b957600080fd5b8101908080359060200190929190505050610780565b6040518080602001806020018673ffffffffffffffffffffffffffffffffffffffff1673ffffffffffffffffffffffffffffffffffffffff16815260200185815260200184151515158152602001838103835288818151815260200191508051906020019080838360005b8381101561015557808201518184015260208101905061013a565b50505050905090810190601f1680156101825780820380516001836020036101000a031916815260200191505b50838103825287818151815260200191508051906020019080838360005b838110156101bb5780820151818401526020810190506101a0565b50505050905090810190601f1680156101e85780820380516001836020036101000a031916815260200191505b5097505050505050505060405180910390f35b34801561020757600080fd5b506102346004803603602081101561021e57600080fd5b81019080803590602001909291905050506109b1565b6040518082815260200191505060405180910390f35b34801561025657600080fd5b5061025f610afc565b6040518082601060200280838360005b8381101561028a57808201518184015260208101905061026f565b5050505090500191505060405180910390f35b3480156102a957600080fd5b50610404600480360360608110156102c057600080fd5b81019080803590602001906401000000008111156102dd57600080fd5b8201836020820111156102ef57600080fd5b8035906020019184600183028401116401000000008311171561031157600080fd5b91908080601f016020809104026020016040519081016040528093929190818152602001838380828437600081840152601f19601f8201169050808301925050505050505091929192908035906020019064010000000081111561037457600080fd5b82018360208201111561038657600080fd5b803590602001918460018302840111640100000000831117156103a857600080fd5b91908080601f016020809104026020016040519081016040528093929190818152602001838380828437600081840152601f19601f82011690508083019250505050505050919291929080359060200190929190505050610ba8565b005b34801561041257600080fd5b5061043f6004803603602081101561042957600080fd5b8101908080359060200190929190505050610d25565b6040518080602001806020018673ffffffffffffffffffffffffffffffffffffffff1673ffffffffffffffffffffffffffffffffffffffff16815260200185815260200184151515158152602001838103835288818151815260200191508051906020019080838360005b838110156104c55780820151818401526020810190506104aa565b50505050905090810190601f1680156104f25780820380516001836020036101000a031916815260200191505b50838103825287818151815260200191508051906020019080838360005b8381101561052b578082015181840152602081019050610510565b50505050905090810190601f1680156105585780820380516001836020036101000a031916815260200191505b5097505050505050505060405180910390f35b34801561057757600080fd5b506105a46004803603602081101561058e57600080fd5b8101908080359060200190929190505050610ec5565b60405180806020018481526020018373ffffffffffffffffffffffffffffffffffffffff1673ffffffffffffffffffffffffffffffffffffffff168152602001828103825285818151815260200191508051906020019080838360005b8381101561061c578082015181840152602081019050610601565b50505050905090810190601f1680156106495780820380516001836020036101000a031916815260200191505b5094505050505060405180910390f35b34801561066557600080fd5b506106926004803603602081101561067c57600080fd5b8101908080359060200190929190505050610faa565b604051808215151515815260200191505060405180910390f35b6106d8600480360360208110156106c257600080fd5b8101908080359060200190929190505050611059565b005b3480156106e657600080fd5b506106ef611329565b6040518082815260200191505060405180910390f35b34801561071157600080fd5b5061073e6004803603602081101561072857600080fd5b8101908080359060200190929190505050611336565b604051808273ffffffffffffffffffffffffffffffffffffffff1673ffffffffffffffffffffffffffffffffffffffff16815260200191505060405180910390f35b60608060008060006030805490508610610802576040517f08c379a00000000000000000000000000000000000000000000000000000000081526004018080602001828103825260108152602001807f496e76616c69642073746f72792049440000000000000000000000000000000081525060200191505060405180910390fd5b60006030878154811061081157fe5b9060005260206000209060050201905080600001816001018260020160009054906101000a900473ffffffffffffffffffffffffffffffffffffffff1683600301548460040160009054906101000a900460ff16848054600181600116156101000203166002900480601f0160208091040260200160405190810160405280929190818152602001828054600181600116156101000203166002900480156108fa5780601f106108cf576101008083540402835291602001916108fa565b820191906000526020600020905b8154815290600101906020018083116108dd57829003601f168201915b50505050509450838054600181600116156101000203166002900480601f0160208091040260200160405190810160405280929190818152602001828054600181600116156101000203166002900480156109965780601f1061096b57610100808354040283529160200191610996565b820191906000526020600020905b81548152906001019060200180831161097957829003601f168201915b50505050509350955095509550955095505091939590929450565b60008082101580156109c45750600f8211155b610a36576040517f08c379a00000000000000000000000000000000000000000000000000000000081526004018080602001828103825260108152602001807f496e76616c696420706c616e742049440000000000000000000000000000000081525060200191505060405180910390fd5b3360008360108110610a4457fe5b6003020160020160006101000a81548173ffffffffffffffffffffffffffffffffffffffff021916908373ffffffffffffffffffffffffffffffffffffffff1602179055507f594517fce9b50c70589c78480b02dcb442d64ca06a0309170426d504eb3318d68233604051808381526020018273ffffffffffffffffffffffffffffffffffffffff1673ffffffffffffffffffffffffffffffffffffffff1681526020019250505060405180910390a1819050919050565b610b04611369565b610b0c611369565b60008090505b6010811015610ba05760008160108110610b2857fe5b6003020160020160009054906101000a900473ffffffffffffffffffffffffffffffffffffffff16828260108110610b5c57fe5b602002019073ffffffffffffffffffffffffffffffffffffffff16908173ffffffffffffffffffffffffffffffffffffffff16815250508080600101915050610b12565b508091505090565b6000603080549050905060306040518060a001604052808681526020018581526020013373ffffffffffffffffffffffffffffffffffffffff16815260200184815260200160001515815250908060018154018082558091505090600182039060005260206000209060050201600090919290919091506000820151816000019080519060200190610c3b92919061138c565b506020820151816001019080519060200190610c5892919061138c565b5060408201518160020160006101000a81548173ffffffffffffffffffffffffffffffffffffffff021916908373ffffffffffffffffffffffffffffffffffffffff1602179055506060820151816003015560808201518160040160006101000a81548160ff021916908315150217905550505050336031600083815260200190815260200160002060006101000a81548173ffffffffffffffffffffffffffffffffffffffff021916908373ffffffffffffffffffffffffffffffffffffffff16021790555050505050565b60308181548110610d3257fe5b9060005260206000209060050201600091509050806000018054600181600116156101000203166002900480601f016020809104026020016040519081016040528092919081815260200182805460018160011615610100020316600290048015610dde5780601f10610db357610100808354040283529160200191610dde565b820191906000526020600020905b815481529060010190602001808311610dc157829003601f168201915b505050505090806001018054600181600116156101000203166002900480601f016020809104026020016040519081016040528092919081815260200182805460018160011615610100020316600290048015610e7c5780601f10610e5157610100808354040283529160200191610e7c565b820191906000526020600020905b815481529060010190602001808311610e5f57829003601f168201915b5050505050908060020160009054906101000a900473ffffffffffffffffffffffffffffffffffffffff16908060030154908060040160009054906101000a900460ff16905085565b60008160108110610ed257fe5b60030201600091509050806000018054600181600116156101000203166002900480601f016020809104026020016040519081016040528092919081815260200182805460018160011615610100020316600290048015610f745780601f10610f4957610100808354040283529160200191610f74565b820191906000526020600020905b815481529060010190602001808311610f5757829003601f168201915b5050505050908060010154908060020160009054906101000a900473ffffffffffffffffffffffffffffffffffffffff16905083565b60006030805490508210611026576040517f08c379a00000000000000000000000000000000000000000000000000000000081526004018080602001828103825260108152602001807f496e76616c69642073746f72792049440000000000000000000000000000000081525060200191505060405180910390fd5b6030828154811061103357fe5b906000526020600020906005020160040160009054906101000a900460ff169050919050565b60308054905081106110d3576040517f08c379a00000000000000000000000000000000000000000000000000000000081526004018080602001828103825260108152602001807f496e76616c69642073746f72792049440000000000000000000000000000000081525060200191505060405180910390fd5b6000603082815481106110e257fe5b906000526020600020906005020190508060040160009054906101000a900460ff1615611177576040517f08c379a00000000000000000000000000000000000000000000000000000000081526004018080602001828103825260208152602001807f53746f72792068617320616c7265616479206265656e2070757263686173656481525060200191505060405180910390fd5b80600301543410156111f1576040517f08c379a00000000000000000000000000000000000000000000000000000000081526004018080602001828103825260128152602001807f496e73756666696369656e742066756e6473000000000000000000000000000081525060200191505060405180910390fd5b60018160040160006101000a81548160ff021916908315150217905550336031600084815260200190815260200160002060006101000a81548173ffffffffffffffffffffffffffffffffffffffff021916908373ffffffffffffffffffffffffffffffffffffffff1602179055507f8e31aca0494085bbe6b333a7e2fe00261c673358e46a110b02cf4b42ad5c6bd28233604051808381526020018273ffffffffffffffffffffffffffffffffffffffff1673ffffffffffffffffffffffffffffffffffffffff1681526020019250505060405180910390a18060030154341115611325573373ffffffffffffffffffffffffffffffffffffffff166108fc826003015434039081150290604051600060405180830381858888f19350505050158015611323573d6000803e3d6000fd5b505b5050565b6000603080549050905090565b60316020528060005260406000206000915054906101000a900473ffffffffffffffffffffffffffffffffffffffff1681565b604051806102000160405280601090602082028038833980820191505090505090565b828054600181600116156101000203166002900490600052602060002090601f016020900481019282601f106113cd57805160ff19168380011785556113fb565b828001600101855582156113fb579182015b828111156113fa5782518255916020019190600101906113df565b5b509050611408919061140c565b5090565b61142e91905b8082111561142a576000816000905550600101611412565b5090565b9056fea165627a7a72305820c461d9884dc14fa9c771c107ce50879e328457c847f2e6739bbbfeabc2b6a7de0029",
  "source": "pragma solidity 0.5.6;\n\ncontract PlantShop {\n    struct Plant {\n        string name;\n        uint256 price;\n        address buyer;\n    }\n\n    struct Story {\n        string title;\n        string content;\n        address author;\n        uint256 price;\n        bool isPurchased;\n    }\n\n    Plant[16] public plants;\n    Story[] public stories;\n    mapping(uint256 => address) public storyToOwner;\n\n    event PlantPurchased(uint256 plantId, address buyer);\n    event StoryPurchased(uint256 storyId, address buyer);\n\n    function buyPlant(uint256 plantId) public returns (uint256) {\n        require(plantId >= 0 && plantId <= 15, \"Invalid plant ID\");\n        plants[plantId].buyer = msg.sender;\n        emit PlantPurchased(plantId, msg.sender);\n        return plantId;\n    }\n\n    function getPlantBuyers() public view returns (address[16] memory) {\n        address[16] memory plantBuyers;\n        for (uint256 i = 0; i < 16; i++) {\n            plantBuyers[i] = plants[i].buyer;\n        }\n        return plantBuyers;\n    }\n\n    function createStory(string memory _title, string memory _content, uint256 _price) public {\n        uint256 newStoryId = stories.length;\n        stories.push(Story(_title, _content, msg.sender, _price, false));\n        storyToOwner[newStoryId] = msg.sender;\n    }\n\n    function purchaseStory(uint256 _storyId) public payable {\n        require(_storyId < stories.length, \"Invalid story ID\");\n        Story storage story = stories[_storyId];\n        require(!story.isPurchased, \"Story has already been purchased\");\n        require(msg.value >= story.price, \"Insufficient funds\");\n\n        story.isPurchased = true;\n        storyToOwner[_storyId] = msg.sender;\n\n        emit StoryPurchased(_storyId, msg.sender);\n\n        if (msg.value > story.price) {\n            msg.sender.transfer(msg.value - story.price);\n        }\n    }\n\n    function getStoryCount() public view returns (uint256) {\n        return stories.length;\n    }\n\n    function isStoryPurchased(uint256 _storyId) public view returns (bool) {\n        require(_storyId < stories.length, \"Invalid story ID\");\n        return stories[_storyId].isPurchased;\n    }\n\n    function getStory(uint256 _storyId) public view returns (string memory, string memory, address, uint256, bool) {\n        require(_storyId < stories.length, \"Invalid story ID\");\n        Story storage story = stories[_storyId];\n        return (story.title, story.content, story.author, story.price, story.isPurchased);\n    }\n}\n",
  "sourcePath": "/home/hacker/Desktop/plant-box/contracts/PlantShop.sol",
  "compiler": {
    "name": "solc",
    "version": "0.5.6+commit.b259423e.Emscripten.clang"
  },
  "schemaVersion": "3.4.14",
  "updatedAt": "2023-06-24T20:30:55.213Z",
  "networkType": "ethereum",
  "devdoc": {
    "methods": {}
  },
  "userdoc": {
    "methods": {}
  }
}